{
  "_format": "hh-sol-artifact-1",
  "contractName": "Nft",
  "sourceName": "contracts/Nft.sol",
  "abi": [
    {
      "inputs": [
        {
          "internalType": "address",
          "name": "_marketAddress",
          "type": "address"
        }
      ],
      "stateMutability": "nonpayable",
      "type": "constructor"
    },
    {
      "anonymous": false,
      "inputs": [
        {
          "indexed": true,
          "internalType": "address",
          "name": "owner",
          "type": "address"
        },
        {
          "indexed": true,
          "internalType": "address",
          "name": "approved",
          "type": "address"
        },
        {
          "indexed": true,
          "internalType": "uint256",
          "name": "tokenId",
          "type": "uint256"
        }
      ],
      "name": "Approval",
      "type": "event"
    },
    {
      "anonymous": false,
      "inputs": [
        {
          "indexed": true,
          "internalType": "address",
          "name": "owner",
          "type": "address"
        },
        {
          "indexed": true,
          "internalType": "address",
          "name": "operator",
          "type": "address"
        },
        {
          "indexed": false,
          "internalType": "bool",
          "name": "approved",
          "type": "bool"
        }
      ],
      "name": "ApprovalForAll",
      "type": "event"
    },
    {
      "anonymous": false,
      "inputs": [
        {
          "indexed": false,
          "internalType": "uint256",
          "name": "_fromTokenId",
          "type": "uint256"
        },
        {
          "indexed": false,
          "internalType": "uint256",
          "name": "_toTokenId",
          "type": "uint256"
        }
      ],
      "name": "BatchMetadataUpdate",
      "type": "event"
    },
    {
      "anonymous": false,
      "inputs": [
        {
          "indexed": false,
          "internalType": "uint256",
          "name": "_tokenId",
          "type": "uint256"
        }
      ],
      "name": "MetadataUpdate",
      "type": "event"
    },
    {
      "anonymous": false,
      "inputs": [
        {
          "indexed": true,
          "internalType": "address",
          "name": "from",
          "type": "address"
        },
        {
          "indexed": true,
          "internalType": "address",
          "name": "to",
          "type": "address"
        },
        {
          "indexed": true,
          "internalType": "uint256",
          "name": "tokenId",
          "type": "uint256"
        }
      ],
      "name": "Transfer",
      "type": "event"
    },
    {
      "inputs": [
        {
          "internalType": "address",
          "name": "to",
          "type": "address"
        },
        {
          "internalType": "uint256",
          "name": "tokenId",
          "type": "uint256"
        }
      ],
      "name": "approve",
      "outputs": [],
      "stateMutability": "nonpayable",
      "type": "function"
    },
    {
      "inputs": [
        {
          "internalType": "address",
          "name": "owner",
          "type": "address"
        }
      ],
      "name": "balanceOf",
      "outputs": [
        {
          "internalType": "uint256",
          "name": "",
          "type": "uint256"
        }
      ],
      "stateMutability": "view",
      "type": "function"
    },
    {
      "inputs": [
        {
          "internalType": "string",
          "name": "tokenURI",
          "type": "string"
        }
      ],
      "name": "createToken",
      "outputs": [
        {
          "internalType": "uint256",
          "name": "",
          "type": "uint256"
        }
      ],
      "stateMutability": "nonpayable",
      "type": "function"
    },
    {
      "inputs": [
        {
          "internalType": "uint256",
          "name": "tokenId",
          "type": "uint256"
        }
      ],
      "name": "getApproved",
      "outputs": [
        {
          "internalType": "address",
          "name": "",
          "type": "address"
        }
      ],
      "stateMutability": "view",
      "type": "function"
    },
    {
      "inputs": [
        {
          "internalType": "address",
          "name": "owner",
          "type": "address"
        },
        {
          "internalType": "address",
          "name": "operator",
          "type": "address"
        }
      ],
      "name": "isApprovedForAll",
      "outputs": [
        {
          "internalType": "bool",
          "name": "",
          "type": "bool"
        }
      ],
      "stateMutability": "view",
      "type": "function"
    },
    {
      "inputs": [],
      "name": "name",
      "outputs": [
        {
          "internalType": "string",
          "name": "",
          "type": "string"
        }
      ],
      "stateMutability": "view",
      "type": "function"
    },
    {
      "inputs": [
        {
          "internalType": "uint256",
          "name": "tokenId",
          "type": "uint256"
        }
      ],
      "name": "ownerOf",
      "outputs": [
        {
          "internalType": "address",
          "name": "",
          "type": "address"
        }
      ],
      "stateMutability": "view",
      "type": "function"
    },
    {
      "inputs": [
        {
          "internalType": "address",
          "name": "from",
          "type": "address"
        },
        {
          "internalType": "address",
          "name": "to",
          "type": "address"
        },
        {
          "internalType": "uint256",
          "name": "tokenId",
          "type": "uint256"
        }
      ],
      "name": "safeTransferFrom",
      "outputs": [],
      "stateMutability": "nonpayable",
      "type": "function"
    },
    {
      "inputs": [
        {
          "internalType": "address",
          "name": "from",
          "type": "address"
        },
        {
          "internalType": "address",
          "name": "to",
          "type": "address"
        },
        {
          "internalType": "uint256",
          "name": "tokenId",
          "type": "uint256"
        },
        {
          "internalType": "bytes",
          "name": "data",
          "type": "bytes"
        }
      ],
      "name": "safeTransferFrom",
      "outputs": [],
      "stateMutability": "nonpayable",
      "type": "function"
    },
    {
      "inputs": [
        {
          "internalType": "address",
          "name": "operator",
          "type": "address"
        },
        {
          "internalType": "bool",
          "name": "approved",
          "type": "bool"
        }
      ],
      "name": "setApprovalForAll",
      "outputs": [],
      "stateMutability": "nonpayable",
      "type": "function"
    },
    {
      "inputs": [
        {
          "internalType": "bytes4",
          "name": "interfaceId",
          "type": "bytes4"
        }
      ],
      "name": "supportsInterface",
      "outputs": [
        {
          "internalType": "bool",
          "name": "",
          "type": "bool"
        }
      ],
      "stateMutability": "view",
      "type": "function"
    },
    {
      "inputs": [],
      "name": "symbol",
      "outputs": [
        {
          "internalType": "string",
          "name": "",
          "type": "string"
        }
      ],
      "stateMutability": "view",
      "type": "function"
    },
    {
      "inputs": [
        {
          "internalType": "uint256",
          "name": "tokenId",
          "type": "uint256"
        }
      ],
      "name": "tokenURI",
      "outputs": [
        {
          "internalType": "string",
          "name": "",
          "type": "string"
        }
      ],
      "stateMutability": "view",
      "type": "function"
    },
    {
      "inputs": [],
      "name": "totalSupply",
      "outputs": [
        {
          "internalType": "uint256",
          "name": "",
          "type": "uint256"
        }
      ],
      "stateMutability": "view",
      "type": "function"
    },
    {
      "inputs": [
        {
          "internalType": "address",
          "name": "from",
          "type": "address"
        },
        {
          "internalType": "address",
          "name": "to",
          "type": "address"
        },
        {
          "internalType": "uint256",
          "name": "tokenId",
          "type": "uint256"
        }
      ],
      "name": "transferFrom",
      "outputs": [],
      "stateMutability": "nonpayable",
      "type": "function"
    }
  ],
  "bytecode": "0x60806040523480156200001157600080fd5b5060405162002d1138038062002d118339818101604052810190620000379190620001e6565b6040518060400160405280600981526020017f4e465420546f6b656e00000000000000000000000000000000000000000000008152506040518060400160405280600381526020017f4e465400000000000000000000000000000000000000000000000000000000008152508160009080519060200190620000bb9291906200011f565b508060019080519060200190620000d49291906200011f565b50505080600860006101000a81548173ffffffffffffffffffffffffffffffffffffffff021916908373ffffffffffffffffffffffffffffffffffffffff16021790555050620002c5565b8280546200012d9062000246565b90600052602060002090601f0160209004810192826200015157600085556200019d565b82601f106200016c57805160ff19168380011785556200019d565b828001600101855582156200019d579182015b828111156200019c5782518255916020019190600101906200017f565b5b509050620001ac9190620001b0565b5090565b5b80821115620001cb576000816000905550600101620001b1565b5090565b600081519050620001e081620002ab565b92915050565b600060208284031215620001f957600080fd5b60006200020984828501620001cf565b91505092915050565b60006200021f8262000226565b9050919050565b600073ffffffffffffffffffffffffffffffffffffffff82169050919050565b600060028204905060018216806200025f57607f821691505b602082108114156200027657620002756200027c565b5b50919050565b7f4e487b7100000000000000000000000000000000000000000000000000000000600052602260045260246000fd5b620002b68162000212565b8114620002c257600080fd5b50565b612a3c80620002d56000396000f3fe608060405234801561001057600080fd5b50600436106100f55760003560e01c806345576f9411610097578063a22cb46511610066578063a22cb46514610298578063b88d4fde146102b4578063c87b56dd146102d0578063e985e9c514610300576100f5565b806345576f94146101ea5780636352211e1461021a57806370a082311461024a57806395d89b411461027a576100f5565b8063095ea7b3116100d3578063095ea7b31461017857806318160ddd1461019457806323b872dd146101b257806342842e0e146101ce576100f5565b806301ffc9a7146100fa57806306fdde031461012a578063081812fc14610148575b600080fd5b610114600480360381019061010f9190611ea9565b610330565b6040516101219190612264565b60405180910390f35b610132610391565b60405161013f919061227f565b60405180910390f35b610162600480360381019061015d9190611f3c565b610423565b60405161016f91906121fd565b60405180910390f35b610192600480360381019061018d9190611e6d565b610469565b005b61019c610581565b6040516101a99190612421565b60405180910390f35b6101cc60048036038101906101c79190611d67565b610597565b005b6101e860048036038101906101e39190611d67565b6105f7565b005b61020460048036038101906101ff9190611efb565b610617565b6040516102119190612421565b60405180910390f35b610234600480360381019061022f9190611f3c565b61067b565b60405161024191906121fd565b60405180910390f35b610264600480360381019061025f9190611d02565b610702565b6040516102719190612421565b60405180910390f35b6102826107ba565b60405161028f919061227f565b60405180910390f35b6102b260048036038101906102ad9190611e31565b61084c565b005b6102ce60048036038101906102c99190611db6565b610862565b005b6102ea60048036038101906102e59190611f3c565b6108c4565b6040516102f7919061227f565b60405180910390f35b61031a60048036038101906103159190611d2b565b6109d7565b6040516103279190612264565b60405180910390f35b6000634906490660e01b7bffffffffffffffffffffffffffffffffffffffffffffffffffffffff1916827bffffffffffffffffffffffffffffffffffffffffffffffffffffffff1916148061038a575061038982610a6b565b5b9050919050565b6060600080546103a0906125bc565b80601f01602080910402602001604051908101604052809291908181526020018280546103cc906125bc565b80156104195780601f106103ee57610100808354040283529160200191610419565b820191906000526020600020905b8154815290600101906020018083116103fc57829003601f168201915b5050505050905090565b600061042e82610b4d565b6004600083815260200190815260200160002060009054906101000a900473ffffffffffffffffffffffffffffffffffffffff169050919050565b60006104748261067b565b90508073ffffffffffffffffffffffffffffffffffffffff168373ffffffffffffffffffffffffffffffffffffffff1614156104e5576040517f08c379a00000000000000000000000000000000000000000000000000000000081526004016104dc906123e1565b60405180910390fd5b8073ffffffffffffffffffffffffffffffffffffffff16610504610b98565b73ffffffffffffffffffffffffffffffffffffffff16148061053357506105328161052d610b98565b6109d7565b5b610572576040517f08c379a000000000000000000000000000000000000000000000000000000000815260040161056990612401565b60405180910390fd5b61057c8383610ba0565b505050565b60008061058e6007610c59565b90508091505090565b6105a86105a2610b98565b82610c67565b6105e7576040517f08c379a00000000000000000000000000000000000000000000000000000000081526004016105de906122a1565b60405180910390fd5b6105f2838383610cfc565b505050565b61061283838360405180602001604052806000815250610862565b505050565b60006106236007610ff6565b600061062f6007610c59565b905061063b338261100c565b610645818461122a565b610672600860009054906101000a900473ffffffffffffffffffffffffffffffffffffffff16600161084c565b80915050919050565b600080610687836112d5565b9050600073ffffffffffffffffffffffffffffffffffffffff168173ffffffffffffffffffffffffffffffffffffffff1614156106f9576040517f08c379a00000000000000000000000000000000000000000000000000000000081526004016106f0906123c1565b60405180910390fd5b80915050919050565b60008073ffffffffffffffffffffffffffffffffffffffff168273ffffffffffffffffffffffffffffffffffffffff161415610773576040517f08c379a000000000000000000000000000000000000000000000000000000000815260040161076a90612361565b60405180910390fd5b600360008373ffffffffffffffffffffffffffffffffffffffff1673ffffffffffffffffffffffffffffffffffffffff168152602001908152602001600020549050919050565b6060600180546107c9906125bc565b80601f01602080910402602001604051908101604052809291908181526020018280546107f5906125bc565b80156108425780601f1061081757610100808354040283529160200191610842565b820191906000526020600020905b81548152906001019060200180831161082557829003601f168201915b5050505050905090565b61085e610857610b98565b8383611312565b5050565b61087361086d610b98565b83610c67565b6108b2576040517f08c379a00000000000000000000000000000000000000000000000000000000081526004016108a9906122a1565b60405180910390fd5b6108be8484848461147f565b50505050565b60606108cf82610b4d565b60006006600084815260200190815260200160002080546108ef906125bc565b80601f016020809104026020016040519081016040528092919081815260200182805461091b906125bc565b80156109685780601f1061093d57610100808354040283529160200191610968565b820191906000526020600020905b81548152906001019060200180831161094b57829003601f168201915b5050505050905060006109796114db565b905060008151141561098f5781925050506109d2565b6000825111156109c45780826040516020016109ac9291906121d9565b604051602081830303815290604052925050506109d2565b6109cd846114f2565b925050505b919050565b6000600560008473ffffffffffffffffffffffffffffffffffffffff1673ffffffffffffffffffffffffffffffffffffffff16815260200190815260200160002060008373ffffffffffffffffffffffffffffffffffffffff1673ffffffffffffffffffffffffffffffffffffffff16815260200190815260200160002060009054906101000a900460ff16905092915050565b60007f80ac58cd000000000000000000000000000000000000000000000000000000007bffffffffffffffffffffffffffffffffffffffffffffffffffffffff1916827bffffffffffffffffffffffffffffffffffffffffffffffffffffffff19161480610b3657507f5b5e139f000000000000000000000000000000000000000000000000000000007bffffffffffffffffffffffffffffffffffffffffffffffffffffffff1916827bffffffffffffffffffffffffffffffffffffffffffffffffffffffff1916145b80610b465750610b458261155a565b5b9050919050565b610b56816115c4565b610b95576040517f08c379a0000000000000000000000000000000000000000000000000000000008152600401610b8c906123c1565b60405180910390fd5b50565b600033905090565b816004600083815260200190815260200160002060006101000a81548173ffffffffffffffffffffffffffffffffffffffff021916908373ffffffffffffffffffffffffffffffffffffffff160217905550808273ffffffffffffffffffffffffffffffffffffffff16610c138361067b565b73ffffffffffffffffffffffffffffffffffffffff167f8c5be1e5ebec7d5bd14f71427d1e84f3dd0314c0f7b2291e5b200ac8c7c3b92560405160405180910390a45050565b600081600001549050919050565b600080610c738361067b565b90508073ffffffffffffffffffffffffffffffffffffffff168473ffffffffffffffffffffffffffffffffffffffff161480610cb55750610cb481856109d7565b5b80610cf357508373ffffffffffffffffffffffffffffffffffffffff16610cdb84610423565b73ffffffffffffffffffffffffffffffffffffffff16145b91505092915050565b8273ffffffffffffffffffffffffffffffffffffffff16610d1c8261067b565b73ffffffffffffffffffffffffffffffffffffffff1614610d72576040517f08c379a0000000000000000000000000000000000000000000000000000000008152600401610d69906122e1565b60405180910390fd5b600073ffffffffffffffffffffffffffffffffffffffff168273ffffffffffffffffffffffffffffffffffffffff161415610de2576040517f08c379a0000000000000000000000000000000000000000000000000000000008152600401610dd990612321565b60405180910390fd5b610def8383836001611605565b8273ffffffffffffffffffffffffffffffffffffffff16610e0f8261067b565b73ffffffffffffffffffffffffffffffffffffffff1614610e65576040517f08c379a0000000000000000000000000000000000000000000000000000000008152600401610e5c906122e1565b60405180910390fd5b6004600082815260200190815260200160002060006101000a81549073ffffffffffffffffffffffffffffffffffffffff02191690556001600360008573ffffffffffffffffffffffffffffffffffffffff1673ffffffffffffffffffffffffffffffffffffffff168152602001908152602001600020600082825403925050819055506001600360008473ffffffffffffffffffffffffffffffffffffffff1673ffffffffffffffffffffffffffffffffffffffff16815260200190815260200160002060008282540192505081905550816002600083815260200190815260200160002060006101000a81548173ffffffffffffffffffffffffffffffffffffffff021916908373ffffffffffffffffffffffffffffffffffffffff160217905550808273ffffffffffffffffffffffffffffffffffffffff168473ffffffffffffffffffffffffffffffffffffffff167fddf252ad1be2c89b69c2b068fc378daa952ba7f163c4a11628f55a4df523b3ef60405160405180910390a4610ff1838383600161160b565b505050565b6001816000016000828254019250508190555050565b600073ffffffffffffffffffffffffffffffffffffffff168273ffffffffffffffffffffffffffffffffffffffff16141561107c576040517f08c379a0000000000000000000000000000000000000000000000000000000008152600401611073906123a1565b60405180910390fd5b611085816115c4565b156110c5576040517f08c379a00000000000000000000000000000000000000000000000000000000081526004016110bc90612301565b60405180910390fd5b6110d3600083836001611605565b6110dc816115c4565b1561111c576040517f08c379a000000000000000000000000000000000000000000000000000000000815260040161111390612301565b60405180910390fd5b6001600360008473ffffffffffffffffffffffffffffffffffffffff1673ffffffffffffffffffffffffffffffffffffffff16815260200190815260200160002060008282540192505081905550816002600083815260200190815260200160002060006101000a81548173ffffffffffffffffffffffffffffffffffffffff021916908373ffffffffffffffffffffffffffffffffffffffff160217905550808273ffffffffffffffffffffffffffffffffffffffff16600073ffffffffffffffffffffffffffffffffffffffff167fddf252ad1be2c89b69c2b068fc378daa952ba7f163c4a11628f55a4df523b3ef60405160405180910390a461122660008383600161160b565b5050565b611233826115c4565b611272576040517f08c379a000000000000000000000000000000000000000000000000000000000815260040161126990612381565b60405180910390fd5b80600660008481526020019081526020016000209080519060200190611299929190611b26565b507ff8e1a15aba9398e019f0b49df1a4fde98ee17ae345cb5f6b5e2c27f5033e8ce7826040516112c99190612421565b60405180910390a15050565b60006002600083815260200190815260200160002060009054906101000a900473ffffffffffffffffffffffffffffffffffffffff169050919050565b8173ffffffffffffffffffffffffffffffffffffffff168373ffffffffffffffffffffffffffffffffffffffff161415611381576040517f08c379a000000000000000000000000000000000000000000000000000000000815260040161137890612341565b60405180910390fd5b80600560008573ffffffffffffffffffffffffffffffffffffffff1673ffffffffffffffffffffffffffffffffffffffff16815260200190815260200160002060008473ffffffffffffffffffffffffffffffffffffffff1673ffffffffffffffffffffffffffffffffffffffff16815260200190815260200160002060006101000a81548160ff0219169083151502179055508173ffffffffffffffffffffffffffffffffffffffff168373ffffffffffffffffffffffffffffffffffffffff167f17307eab39ab6107e8899845ad3d59bd9653f200f220920489ca2b5937696c31836040516114729190612264565b60405180910390a3505050565b61148a848484610cfc565b61149684848484611611565b6114d5576040517f08c379a00000000000000000000000000000000000000000000000000000000081526004016114cc906122c1565b60405180910390fd5b50505050565b606060405180602001604052806000815250905090565b60606114fd82610b4d565b60006115076114db565b905060008151116115275760405180602001604052806000815250611552565b80611531846117a8565b6040516020016115429291906121d9565b6040516020818303038152906040525b915050919050565b60007f01ffc9a7000000000000000000000000000000000000000000000000000000007bffffffffffffffffffffffffffffffffffffffffffffffffffffffff1916827bffffffffffffffffffffffffffffffffffffffffffffffffffffffff1916149050919050565b60008073ffffffffffffffffffffffffffffffffffffffff166115e6836112d5565b73ffffffffffffffffffffffffffffffffffffffff1614159050919050565b50505050565b50505050565b60006116328473ffffffffffffffffffffffffffffffffffffffff166118cc565b1561179b578373ffffffffffffffffffffffffffffffffffffffff1663150b7a0261165b610b98565b8786866040518563ffffffff1660e01b815260040161167d9493929190612218565b602060405180830381600087803b15801561169757600080fd5b505af19250505080156116c857506040513d601f19601f820116820180604052508101906116c59190611ed2565b60015b61174b573d80600081146116f8576040519150601f19603f3d011682016040523d82523d6000602084013e6116fd565b606091505b50600081511415611743576040517f08c379a000000000000000000000000000000000000000000000000000000000815260040161173a906122c1565b60405180910390fd5b805181602001fd5b63150b7a0260e01b7bffffffffffffffffffffffffffffffffffffffffffffffffffffffff1916817bffffffffffffffffffffffffffffffffffffffffffffffffffffffff1916149150506117a0565b600190505b949350505050565b6060600060016117b7846118ef565b01905060008167ffffffffffffffff8111156117fc577f4e487b7100000000000000000000000000000000000000000000000000000000600052604160045260246000fd5b6040519080825280601f01601f19166020018201604052801561182e5781602001600182028036833780820191505090505b509050600082602001820190505b6001156118c1578080600190039150507f3031323334353637383961626364656600000000000000000000000000000000600a86061a8153600a85816118ab577f4e487b7100000000000000000000000000000000000000000000000000000000600052601260045260246000fd5b04945060008514156118bc576118c1565b61183c565b819350505050919050565b6000808273ffffffffffffffffffffffffffffffffffffffff163b119050919050565b600080600090507a184f03e93ff9f4daa797ed6e38ed64bf6a1f0100000000000000008310611973577a184f03e93ff9f4daa797ed6e38ed64bf6a1f0100000000000000008381611969577f4e487b7100000000000000000000000000000000000000000000000000000000600052601260045260246000fd5b0492506040810190505b6d04ee2d6d415b85acef810000000083106119d6576d04ee2d6d415b85acef810000000083816119cc577f4e487b7100000000000000000000000000000000000000000000000000000000600052601260045260246000fd5b0492506020810190505b662386f26fc100008310611a2b57662386f26fc100008381611a21577f4e487b7100000000000000000000000000000000000000000000000000000000600052601260045260246000fd5b0492506010810190505b6305f5e1008310611a7a576305f5e1008381611a70577f4e487b7100000000000000000000000000000000000000000000000000000000600052601260045260246000fd5b0492506008810190505b6127108310611ac5576127108381611abb577f4e487b7100000000000000000000000000000000000000000000000000000000600052601260045260246000fd5b0492506004810190505b60648310611b0e5760648381611b04577f4e487b7100000000000000000000000000000000000000000000000000000000600052601260045260246000fd5b0492506002810190505b600a8310611b1d576001810190505b80915050919050565b828054611b32906125bc565b90600052602060002090601f016020900481019282611b545760008555611b9b565b82601f10611b6d57805160ff1916838001178555611b9b565b82800160010185558215611b9b579182015b82811115611b9a578251825591602001919060010190611b7f565b5b509050611ba89190611bac565b5090565b5b80821115611bc5576000816000905550600101611bad565b5090565b6000611bdc611bd784612461565b61243c565b905082815260208101848484011115611bf457600080fd5b611bff84828561257a565b509392505050565b6000611c1a611c1584612492565b61243c565b905082815260208101848484011115611c3257600080fd5b611c3d84828561257a565b509392505050565b600081359050611c54816129aa565b92915050565b600081359050611c69816129c1565b92915050565b600081359050611c7e816129d8565b92915050565b600081519050611c93816129d8565b92915050565b600082601f830112611caa57600080fd5b8135611cba848260208601611bc9565b91505092915050565b600082601f830112611cd457600080fd5b8135611ce4848260208601611c07565b91505092915050565b600081359050611cfc816129ef565b92915050565b600060208284031215611d1457600080fd5b6000611d2284828501611c45565b91505092915050565b60008060408385031215611d3e57600080fd5b6000611d4c85828601611c45565b9250506020611d5d85828601611c45565b9150509250929050565b600080600060608486031215611d7c57600080fd5b6000611d8a86828701611c45565b9350506020611d9b86828701611c45565b9250506040611dac86828701611ced565b9150509250925092565b60008060008060808587031215611dcc57600080fd5b6000611dda87828801611c45565b9450506020611deb87828801611c45565b9350506040611dfc87828801611ced565b925050606085013567ffffffffffffffff811115611e1957600080fd5b611e2587828801611c99565b91505092959194509250565b60008060408385031215611e4457600080fd5b6000611e5285828601611c45565b9250506020611e6385828601611c5a565b9150509250929050565b60008060408385031215611e8057600080fd5b6000611e8e85828601611c45565b9250506020611e9f85828601611ced565b9150509250929050565b600060208284031215611ebb57600080fd5b6000611ec984828501611c6f565b91505092915050565b600060208284031215611ee457600080fd5b6000611ef284828501611c84565b91505092915050565b600060208284031215611f0d57600080fd5b600082013567ffffffffffffffff811115611f2757600080fd5b611f3384828501611cc3565b91505092915050565b600060208284031215611f4e57600080fd5b6000611f5c84828501611ced565b91505092915050565b611f6e81612506565b82525050565b611f7d81612518565b82525050565b6000611f8e826124c3565b611f9881856124d9565b9350611fa8818560208601612589565b611fb18161267d565b840191505092915050565b6000611fc7826124ce565b611fd181856124ea565b9350611fe1818560208601612589565b611fea8161267d565b840191505092915050565b6000612000826124ce565b61200a81856124fb565b935061201a818560208601612589565b80840191505092915050565b6000612033602d836124ea565b915061203e8261268e565b604082019050919050565b60006120566032836124ea565b9150612061826126dd565b604082019050919050565b60006120796025836124ea565b91506120848261272c565b604082019050919050565b600061209c601c836124ea565b91506120a78261277b565b602082019050919050565b60006120bf6024836124ea565b91506120ca826127a4565b604082019050919050565b60006120e26019836124ea565b91506120ed826127f3565b602082019050919050565b60006121056029836124ea565b91506121108261281c565b604082019050919050565b6000612128602e836124ea565b91506121338261286b565b604082019050919050565b600061214b6020836124ea565b9150612156826128ba565b602082019050919050565b600061216e6018836124ea565b9150612179826128e3565b602082019050919050565b60006121916021836124ea565b915061219c8261290c565b604082019050919050565b60006121b4603d836124ea565b91506121bf8261295b565b604082019050919050565b6121d381612570565b82525050565b60006121e58285611ff5565b91506121f18284611ff5565b91508190509392505050565b60006020820190506122126000830184611f65565b92915050565b600060808201905061222d6000830187611f65565b61223a6020830186611f65565b61224760408301856121ca565b81810360608301526122598184611f83565b905095945050505050565b60006020820190506122796000830184611f74565b92915050565b600060208201905081810360008301526122998184611fbc565b905092915050565b600060208201905081810360008301526122ba81612026565b9050919050565b600060208201905081810360008301526122da81612049565b9050919050565b600060208201905081810360008301526122fa8161206c565b9050919050565b6000602082019050818103600083015261231a8161208f565b9050919050565b6000602082019050818103600083015261233a816120b2565b9050919050565b6000602082019050818103600083015261235a816120d5565b9050919050565b6000602082019050818103600083015261237a816120f8565b9050919050565b6000602082019050818103600083015261239a8161211b565b9050919050565b600060208201905081810360008301526123ba8161213e565b9050919050565b600060208201905081810360008301526123da81612161565b9050919050565b600060208201905081810360008301526123fa81612184565b9050919050565b6000602082019050818103600083015261241a816121a7565b9050919050565b600060208201905061243660008301846121ca565b92915050565b6000612446612457565b905061245282826125ee565b919050565b6000604051905090565b600067ffffffffffffffff82111561247c5761247b61264e565b5b6124858261267d565b9050602081019050919050565b600067ffffffffffffffff8211156124ad576124ac61264e565b5b6124b68261267d565b9050602081019050919050565b600081519050919050565b600081519050919050565b600082825260208201905092915050565b600082825260208201905092915050565b600081905092915050565b600061251182612550565b9050919050565b60008115159050919050565b60007fffffffff0000000000000000000000000000000000000000000000000000000082169050919050565b600073ffffffffffffffffffffffffffffffffffffffff82169050919050565b6000819050919050565b82818337600083830152505050565b60005b838110156125a757808201518184015260208101905061258c565b838111156125b6576000848401525b50505050565b600060028204905060018216806125d457607f821691505b602082108114156125e8576125e761261f565b5b50919050565b6125f78261267d565b810181811067ffffffffffffffff821117156126165761261561264e565b5b80604052505050565b7f4e487b7100000000000000000000000000000000000000000000000000000000600052602260045260246000fd5b7f4e487b7100000000000000000000000000000000000000000000000000000000600052604160045260246000fd5b6000601f19601f8301169050919050565b7f4552433732313a2063616c6c6572206973206e6f7420746f6b656e206f776e6560008201527f72206f7220617070726f76656400000000000000000000000000000000000000602082015250565b7f4552433732313a207472616e7366657220746f206e6f6e20455243373231526560008201527f63656976657220696d706c656d656e7465720000000000000000000000000000602082015250565b7f4552433732313a207472616e736665722066726f6d20696e636f72726563742060008201527f6f776e6572000000000000000000000000000000000000000000000000000000602082015250565b7f4552433732313a20746f6b656e20616c7265616479206d696e74656400000000600082015250565b7f4552433732313a207472616e7366657220746f20746865207a65726f2061646460008201527f7265737300000000000000000000000000000000000000000000000000000000602082015250565b7f4552433732313a20617070726f766520746f2063616c6c657200000000000000600082015250565b7f4552433732313a2061646472657373207a65726f206973206e6f74206120766160008201527f6c6964206f776e65720000000000000000000000000000000000000000000000602082015250565b7f45524337323155524953746f726167653a2055524920736574206f66206e6f6e60008201527f6578697374656e7420746f6b656e000000000000000000000000000000000000602082015250565b7f4552433732313a206d696e7420746f20746865207a65726f2061646472657373600082015250565b7f4552433732313a20696e76616c696420746f6b656e2049440000000000000000600082015250565b7f4552433732313a20617070726f76616c20746f2063757272656e74206f776e6560008201527f7200000000000000000000000000000000000000000000000000000000000000602082015250565b7f4552433732313a20617070726f76652063616c6c6572206973206e6f7420746f60008201527f6b656e206f776e6572206f7220617070726f76656420666f7220616c6c000000602082015250565b6129b381612506565b81146129be57600080fd5b50565b6129ca81612518565b81146129d557600080fd5b50565b6129e181612524565b81146129ec57600080fd5b50565b6129f881612570565b8114612a0357600080fd5b5056fea26469706673582212200c31b893c7e367ff56ad1c89f810d20e53f7e62fe64e39d0fe05dab79708f48d64736f6c63430008040033",
  "linkReferences": {},
  "deployedLinkReferences": {}
}