{
  "_format": "hh-sol-artifact-1",
  "contractName": "NftMarketplace",
  "sourceName": "contracts/NftMarketplace.sol",
  "abi": [
    {
      "inputs": [],
      "stateMutability": "nonpayable",
      "type": "constructor"
    },
    {
      "anonymous": false,
      "inputs": [
        {
          "indexed": true,
          "internalType": "uint256",
          "name": "itemId",
          "type": "uint256"
        },
        {
          "indexed": true,
          "internalType": "address",
          "name": "nftContract",
          "type": "address"
        },
        {
          "indexed": true,
          "internalType": "uint256",
          "name": "tokenId",
          "type": "uint256"
        },
        {
          "indexed": false,
          "internalType": "address",
          "name": "borrower",
          "type": "address"
        },
        {
          "indexed": false,
          "internalType": "address",
          "name": "lender",
          "type": "address"
        },
        {
          "indexed": false,
          "internalType": "uint256",
          "name": "principal",
          "type": "uint256"
        },
        {
          "indexed": false,
          "internalType": "uint256",
          "name": "interest",
          "type": "uint256"
        },
        {
          "indexed": false,
          "internalType": "uint256",
          "name": "repaymentAmount",
          "type": "uint256"
        },
        {
          "indexed": false,
          "internalType": "uint256",
          "name": "leaseStartTimestamp",
          "type": "uint256"
        },
        {
          "indexed": false,
          "internalType": "uint256",
          "name": "duration",
          "type": "uint256"
        },
        {
          "indexed": false,
          "internalType": "bool",
          "name": "active",
          "type": "bool"
        },
        {
          "indexed": false,
          "internalType": "bool",
          "name": "repaid",
          "type": "bool"
        },
        {
          "indexed": false,
          "internalType": "bool",
          "name": "defaulted",
          "type": "bool"
        }
      ],
      "name": "LeaseItemCreated",
      "type": "event"
    },
    {
      "anonymous": false,
      "inputs": [
        {
          "indexed": true,
          "internalType": "uint256",
          "name": "itemId",
          "type": "uint256"
        },
        {
          "indexed": true,
          "internalType": "address",
          "name": "nftContract",
          "type": "address"
        },
        {
          "indexed": true,
          "internalType": "uint256",
          "name": "tokenId",
          "type": "uint256"
        },
        {
          "indexed": false,
          "internalType": "address",
          "name": "seller",
          "type": "address"
        },
        {
          "indexed": false,
          "internalType": "address",
          "name": "owner",
          "type": "address"
        },
        {
          "indexed": false,
          "internalType": "uint256",
          "name": "price",
          "type": "uint256"
        },
        {
          "indexed": false,
          "internalType": "bool",
          "name": "sold",
          "type": "bool"
        },
        {
          "indexed": false,
          "internalType": "bool",
          "name": "canceled",
          "type": "bool"
        }
      ],
      "name": "MarketItemCreated",
      "type": "event"
    },
    {
      "stateMutability": "payable",
      "type": "fallback"
    },
    {
      "inputs": [
        {
          "internalType": "address",
          "name": "nftContract",
          "type": "address"
        },
        {
          "internalType": "uint256",
          "name": "tokenId",
          "type": "uint256"
        },
        {
          "internalType": "uint256",
          "name": "principal",
          "type": "uint256"
        },
        {
          "internalType": "uint256",
          "name": "duration",
          "type": "uint256"
        },
        {
          "internalType": "uint256",
          "name": "interest",
          "type": "uint256"
        }
      ],
      "name": "createLeaseItem",
      "outputs": [],
      "stateMutability": "payable",
      "type": "function"
    },
    {
      "inputs": [
        {
          "internalType": "address",
          "name": "nftContract",
          "type": "address"
        },
        {
          "internalType": "uint256",
          "name": "tokenId",
          "type": "uint256"
        },
        {
          "internalType": "uint256",
          "name": "price",
          "type": "uint256"
        }
      ],
      "name": "createMarketItem",
      "outputs": [],
      "stateMutability": "payable",
      "type": "function"
    },
    {
      "inputs": [
        {
          "internalType": "address",
          "name": "nftContract",
          "type": "address"
        },
        {
          "internalType": "uint256",
          "name": "itemId",
          "type": "uint256"
        }
      ],
      "name": "createMarketSale",
      "outputs": [],
      "stateMutability": "payable",
      "type": "function"
    },
    {
      "inputs": [
        {
          "internalType": "address",
          "name": "nftContract",
          "type": "address"
        },
        {
          "internalType": "uint256",
          "name": "itemId",
          "type": "uint256"
        }
      ],
      "name": "defaultLease",
      "outputs": [],
      "stateMutability": "payable",
      "type": "function"
    },
    {
      "inputs": [],
      "name": "fetchAllLeaseItems",
      "outputs": [
        {
          "components": [
            {
              "internalType": "uint256",
              "name": "itemId",
              "type": "uint256"
            },
            {
              "internalType": "address",
              "name": "nftContract",
              "type": "address"
            },
            {
              "internalType": "uint256",
              "name": "tokenId",
              "type": "uint256"
            },
            {
              "internalType": "address payable",
              "name": "borrower",
              "type": "address"
            },
            {
              "internalType": "address payable",
              "name": "lender",
              "type": "address"
            },
            {
              "internalType": "uint256",
              "name": "principal",
              "type": "uint256"
            },
            {
              "internalType": "uint256",
              "name": "interest",
              "type": "uint256"
            },
            {
              "internalType": "uint256",
              "name": "repaymentAmount",
              "type": "uint256"
            },
            {
              "internalType": "uint256",
              "name": "leaseStartTimestamp",
              "type": "uint256"
            },
            {
              "internalType": "uint256",
              "name": "duration",
              "type": "uint256"
            },
            {
              "internalType": "bool",
              "name": "active",
              "type": "bool"
            },
            {
              "internalType": "bool",
              "name": "repaid",
              "type": "bool"
            },
            {
              "internalType": "bool",
              "name": "defaulted",
              "type": "bool"
            }
          ],
          "internalType": "struct NftMarketplace.LeaseItem[]",
          "name": "",
          "type": "tuple[]"
        }
      ],
      "stateMutability": "view",
      "type": "function"
    },
    {
      "inputs": [],
      "name": "fetchAllMarketItems",
      "outputs": [
        {
          "components": [
            {
              "internalType": "uint256",
              "name": "itemId",
              "type": "uint256"
            },
            {
              "internalType": "address",
              "name": "nftContract",
              "type": "address"
            },
            {
              "internalType": "uint256",
              "name": "tokenId",
              "type": "uint256"
            },
            {
              "internalType": "address payable",
              "name": "seller",
              "type": "address"
            },
            {
              "internalType": "address payable",
              "name": "owner",
              "type": "address"
            },
            {
              "internalType": "uint256",
              "name": "price",
              "type": "uint256"
            },
            {
              "internalType": "bool",
              "name": "sold",
              "type": "bool"
            },
            {
              "internalType": "bool",
              "name": "canceled",
              "type": "bool"
            }
          ],
          "internalType": "struct NftMarketplace.MarketItem[]",
          "name": "",
          "type": "tuple[]"
        }
      ],
      "stateMutability": "view",
      "type": "function"
    },
    {
      "inputs": [],
      "name": "fetchCreatedItems",
      "outputs": [
        {
          "components": [
            {
              "internalType": "uint256",
              "name": "itemId",
              "type": "uint256"
            },
            {
              "internalType": "address",
              "name": "nftContract",
              "type": "address"
            },
            {
              "internalType": "uint256",
              "name": "tokenId",
              "type": "uint256"
            },
            {
              "internalType": "address payable",
              "name": "seller",
              "type": "address"
            },
            {
              "internalType": "address payable",
              "name": "owner",
              "type": "address"
            },
            {
              "internalType": "uint256",
              "name": "price",
              "type": "uint256"
            },
            {
              "internalType": "bool",
              "name": "sold",
              "type": "bool"
            },
            {
              "internalType": "bool",
              "name": "canceled",
              "type": "bool"
            }
          ],
          "internalType": "struct NftMarketplace.MarketItem[]",
          "name": "",
          "type": "tuple[]"
        }
      ],
      "stateMutability": "view",
      "type": "function"
    },
    {
      "inputs": [],
      "name": "fetchLeaseItemsWhereIAmBorrower",
      "outputs": [
        {
          "components": [
            {
              "internalType": "uint256",
              "name": "itemId",
              "type": "uint256"
            },
            {
              "internalType": "address",
              "name": "nftContract",
              "type": "address"
            },
            {
              "internalType": "uint256",
              "name": "tokenId",
              "type": "uint256"
            },
            {
              "internalType": "address payable",
              "name": "borrower",
              "type": "address"
            },
            {
              "internalType": "address payable",
              "name": "lender",
              "type": "address"
            },
            {
              "internalType": "uint256",
              "name": "principal",
              "type": "uint256"
            },
            {
              "internalType": "uint256",
              "name": "interest",
              "type": "uint256"
            },
            {
              "internalType": "uint256",
              "name": "repaymentAmount",
              "type": "uint256"
            },
            {
              "internalType": "uint256",
              "name": "leaseStartTimestamp",
              "type": "uint256"
            },
            {
              "internalType": "uint256",
              "name": "duration",
              "type": "uint256"
            },
            {
              "internalType": "bool",
              "name": "active",
              "type": "bool"
            },
            {
              "internalType": "bool",
              "name": "repaid",
              "type": "bool"
            },
            {
              "internalType": "bool",
              "name": "defaulted",
              "type": "bool"
            }
          ],
          "internalType": "struct NftMarketplace.LeaseItem[]",
          "name": "",
          "type": "tuple[]"
        }
      ],
      "stateMutability": "view",
      "type": "function"
    },
    {
      "inputs": [],
      "name": "fetchLeaseItemsWhereIAmLender",
      "outputs": [
        {
          "components": [
            {
              "internalType": "uint256",
              "name": "itemId",
              "type": "uint256"
            },
            {
              "internalType": "address",
              "name": "nftContract",
              "type": "address"
            },
            {
              "internalType": "uint256",
              "name": "tokenId",
              "type": "uint256"
            },
            {
              "internalType": "address payable",
              "name": "borrower",
              "type": "address"
            },
            {
              "internalType": "address payable",
              "name": "lender",
              "type": "address"
            },
            {
              "internalType": "uint256",
              "name": "principal",
              "type": "uint256"
            },
            {
              "internalType": "uint256",
              "name": "interest",
              "type": "uint256"
            },
            {
              "internalType": "uint256",
              "name": "repaymentAmount",
              "type": "uint256"
            },
            {
              "internalType": "uint256",
              "name": "leaseStartTimestamp",
              "type": "uint256"
            },
            {
              "internalType": "uint256",
              "name": "duration",
              "type": "uint256"
            },
            {
              "internalType": "bool",
              "name": "active",
              "type": "bool"
            },
            {
              "internalType": "bool",
              "name": "repaid",
              "type": "bool"
            },
            {
              "internalType": "bool",
              "name": "defaulted",
              "type": "bool"
            }
          ],
          "internalType": "struct NftMarketplace.LeaseItem[]",
          "name": "",
          "type": "tuple[]"
        }
      ],
      "stateMutability": "view",
      "type": "function"
    },
    {
      "inputs": [
        {
          "internalType": "uint256",
          "name": "tokenId",
          "type": "uint256"
        }
      ],
      "name": "fetchMarketItemByTokenId",
      "outputs": [
        {
          "components": [
            {
              "internalType": "uint256",
              "name": "itemId",
              "type": "uint256"
            },
            {
              "internalType": "address",
              "name": "nftContract",
              "type": "address"
            },
            {
              "internalType": "uint256",
              "name": "tokenId",
              "type": "uint256"
            },
            {
              "internalType": "address payable",
              "name": "seller",
              "type": "address"
            },
            {
              "internalType": "address payable",
              "name": "owner",
              "type": "address"
            },
            {
              "internalType": "uint256",
              "name": "price",
              "type": "uint256"
            },
            {
              "internalType": "bool",
              "name": "sold",
              "type": "bool"
            },
            {
              "internalType": "bool",
              "name": "canceled",
              "type": "bool"
            }
          ],
          "internalType": "struct NftMarketplace.MarketItem[]",
          "name": "",
          "type": "tuple[]"
        }
      ],
      "stateMutability": "view",
      "type": "function"
    },
    {
      "inputs": [],
      "name": "fetchMarketItems",
      "outputs": [
        {
          "components": [
            {
              "internalType": "uint256",
              "name": "itemId",
              "type": "uint256"
            },
            {
              "internalType": "address",
              "name": "nftContract",
              "type": "address"
            },
            {
              "internalType": "uint256",
              "name": "tokenId",
              "type": "uint256"
            },
            {
              "internalType": "address payable",
              "name": "seller",
              "type": "address"
            },
            {
              "internalType": "address payable",
              "name": "owner",
              "type": "address"
            },
            {
              "internalType": "uint256",
              "name": "price",
              "type": "uint256"
            },
            {
              "internalType": "bool",
              "name": "sold",
              "type": "bool"
            },
            {
              "internalType": "bool",
              "name": "canceled",
              "type": "bool"
            }
          ],
          "internalType": "struct NftMarketplace.MarketItem[]",
          "name": "",
          "type": "tuple[]"
        }
      ],
      "stateMutability": "view",
      "type": "function"
    },
    {
      "inputs": [],
      "name": "fetchMyMarketItems",
      "outputs": [
        {
          "components": [
            {
              "internalType": "uint256",
              "name": "itemId",
              "type": "uint256"
            },
            {
              "internalType": "address",
              "name": "nftContract",
              "type": "address"
            },
            {
              "internalType": "uint256",
              "name": "tokenId",
              "type": "uint256"
            },
            {
              "internalType": "address payable",
              "name": "seller",
              "type": "address"
            },
            {
              "internalType": "address payable",
              "name": "owner",
              "type": "address"
            },
            {
              "internalType": "uint256",
              "name": "price",
              "type": "uint256"
            },
            {
              "internalType": "bool",
              "name": "sold",
              "type": "bool"
            },
            {
              "internalType": "bool",
              "name": "canceled",
              "type": "bool"
            }
          ],
          "internalType": "struct NftMarketplace.MarketItem[]",
          "name": "",
          "type": "tuple[]"
        }
      ],
      "stateMutability": "view",
      "type": "function"
    },
    {
      "inputs": [],
      "name": "fetchUnfilledLeaseItems",
      "outputs": [
        {
          "components": [
            {
              "internalType": "uint256",
              "name": "itemId",
              "type": "uint256"
            },
            {
              "internalType": "address",
              "name": "nftContract",
              "type": "address"
            },
            {
              "internalType": "uint256",
              "name": "tokenId",
              "type": "uint256"
            },
            {
              "internalType": "address payable",
              "name": "borrower",
              "type": "address"
            },
            {
              "internalType": "address payable",
              "name": "lender",
              "type": "address"
            },
            {
              "internalType": "uint256",
              "name": "principal",
              "type": "uint256"
            },
            {
              "internalType": "uint256",
              "name": "interest",
              "type": "uint256"
            },
            {
              "internalType": "uint256",
              "name": "repaymentAmount",
              "type": "uint256"
            },
            {
              "internalType": "uint256",
              "name": "leaseStartTimestamp",
              "type": "uint256"
            },
            {
              "internalType": "uint256",
              "name": "duration",
              "type": "uint256"
            },
            {
              "internalType": "bool",
              "name": "active",
              "type": "bool"
            },
            {
              "internalType": "bool",
              "name": "repaid",
              "type": "bool"
            },
            {
              "internalType": "bool",
              "name": "defaulted",
              "type": "bool"
            }
          ],
          "internalType": "struct NftMarketplace.LeaseItem[]",
          "name": "",
          "type": "tuple[]"
        }
      ],
      "stateMutability": "view",
      "type": "function"
    },
    {
      "inputs": [
        {
          "internalType": "uint256",
          "name": "itemId",
          "type": "uint256"
        }
      ],
      "name": "fillLease",
      "outputs": [],
      "stateMutability": "payable",
      "type": "function"
    },
    {
      "inputs": [],
      "name": "getListingFee",
      "outputs": [
        {
          "internalType": "uint256",
          "name": "",
          "type": "uint256"
        }
      ],
      "stateMutability": "view",
      "type": "function"
    },
    {
      "inputs": [
        {
          "internalType": "address",
          "name": "nftContract",
          "type": "address"
        },
        {
          "internalType": "uint256",
          "name": "itemId",
          "type": "uint256"
        }
      ],
      "name": "repayLease",
      "outputs": [],
      "stateMutability": "payable",
      "type": "function"
    },
    {
      "inputs": [
        {
          "internalType": "address",
          "name": "nftContract",
          "type": "address"
        },
        {
          "internalType": "uint256",
          "name": "itemId",
          "type": "uint256"
        }
      ],
      "name": "withdrawMarketItem",
      "outputs": [],
      "stateMutability": "payable",
      "type": "function"
    },
    {
      "stateMutability": "payable",
      "type": "receive"
    }
  ],
  "bytecode": "0x60806040526611c37937e0800060075534801561001b57600080fd5b50600160008190555033600660006101000a81548173ffffffffffffffffffffffffffffffffffffffff021916908373ffffffffffffffffffffffffffffffffffffffff16021790555061477f806100746000396000f3fe6080604052600436106101025760003560e01c8063a0d2aea711610095578063dd3385b711610064578063dd3385b7146102c7578063dfb6452b146102f2578063e3f6d1e01461031d578063f479d62014610348578063fe26d7361461036457610109565b8063a0d2aea714610239578063b371db6e14610255578063b8fe6abe14610280578063c23b139e146102ab57610109565b806358eb2df5116100d157806358eb2df5146101995780635f87d6b5146101b557806399dd7e20146101d15780639ff82b3d1461020e57610109565b80630f08efe01461010b5780633c0d793c146101365780634473d86e1461015257806346cb48f31461016e57610109565b3661010957005b005b34801561011757600080fd5b5061012061038f565b60405161012d9190613fe2565b60405180910390f35b610150600480360381019061014b9190613997565b6106d7565b005b61016c60048036038101906101679190613895565b6108d9565b005b34801561017a57600080fd5b50610183610acf565b6040516101909190613fc0565b60405180910390f35b6101b360048036038101906101ae91906138d1565b610ede565b005b6101cf60048036038101906101ca9190613895565b611228565b005b3480156101dd57600080fd5b506101f860048036038101906101f39190613997565b6114d9565b6040516102059190613fe2565b60405180910390f35b34801561021a57600080fd5b506102236118f3565b6040516102309190613fe2565b60405180910390f35b610253600480360381019061024e9190613895565b611cbf565b005b34801561026157600080fd5b5061026a611ed3565b6040516102779190613fc0565b60405180910390f35b34801561028c57600080fd5b506102956122e2565b6040516102a291906141a4565b60405180910390f35b6102c560048036038101906102c09190613895565b6122ec565b005b3480156102d357600080fd5b506102dc61255f565b6040516102e99190613fe2565b60405180910390f35b3480156102fe57600080fd5b5061030761292b565b6040516103149190613fe2565b60405180910390f35b34801561032957600080fd5b50610332612bd8565b60405161033f9190613fc0565b60405180910390f35b610362600480360381019061035d9190613920565b612f63565b005b34801561037057600080fd5b506103796133c2565b6040516103869190613fc0565b60405180910390f35b6060600061039d60016136b2565b905060006103ab60026136b2565b6103b560016136b2565b6103bf9190614298565b90506000808267ffffffffffffffff811115610404577f4e487b7100000000000000000000000000000000000000000000000000000000600052604160045260246000fd5b60405190808252806020026020018201604052801561043d57816020015b61042a613730565b8152602001906001900390816104225790505b50905060005b848110156106cc57600073ffffffffffffffffffffffffffffffffffffffff16600860006001846104749190614242565b815260200190815260200160002060040160009054906101000a900473ffffffffffffffffffffffffffffffffffffffff1673ffffffffffffffffffffffffffffffffffffffff1614156106b9576000600860006001846104d59190614242565b815260200190815260200160002060000154905060006008600083815260200190815260200160002090508060405180610100016040529081600082015481526020016001820160009054906101000a900473ffffffffffffffffffffffffffffffffffffffff1673ffffffffffffffffffffffffffffffffffffffff1673ffffffffffffffffffffffffffffffffffffffff168152602001600282015481526020016003820160009054906101000a900473ffffffffffffffffffffffffffffffffffffffff1673ffffffffffffffffffffffffffffffffffffffff1673ffffffffffffffffffffffffffffffffffffffff1681526020016004820160009054906101000a900473ffffffffffffffffffffffffffffffffffffffff1673ffffffffffffffffffffffffffffffffffffffff1673ffffffffffffffffffffffffffffffffffffffff168152602001600582015481526020016006820160009054906101000a900460ff161515151581526020016006820160019054906101000a900460ff16151515158152505084868151811061069c577f4e487b7100000000000000000000000000000000000000000000000000000000600052603260045260246000fd5b60200260200101819052506001856106b49190614242565b945050505b80806106c490614338565b915050610443565b508094505050505090565b6106df6136c0565b60006009600083815260200190815260200160002060050154905080341461073c576040517f08c379a000000000000000000000000000000000000000000000000000000000815260040161073390614104565b60405180910390fd5b6009600083815260200190815260200160002060030160009054906101000a900473ffffffffffffffffffffffffffffffffffffffff1673ffffffffffffffffffffffffffffffffffffffff166108fc349081150290604051600060405180830381858888f193505050501580156107b8573d6000803e3d6000fd5b50336009600084815260200190815260200160002060040160006101000a81548173ffffffffffffffffffffffffffffffffffffffff021916908373ffffffffffffffffffffffffffffffffffffffff160217905550600160096000848152602001908152602001600020600a0160006101000a81548160ff0219169083151502179055504260096000848152602001908152602001600020600801819055506108626005613710565b600660009054906101000a900473ffffffffffffffffffffffffffffffffffffffff1673ffffffffffffffffffffffffffffffffffffffff166108fc6007549081150290604051600060405180830381858888f193505050501580156108cc573d6000803e3d6000fd5b50506108d6613726565b50565b6108e16136c0565b6000600860008381526020019081526020016000206002015490506008600083815260200190815260200160002060030160009054906101000a900473ffffffffffffffffffffffffffffffffffffffff1673ffffffffffffffffffffffffffffffffffffffff163373ffffffffffffffffffffffffffffffffffffffff16146109a0576040517f08c379a000000000000000000000000000000000000000000000000000000000815260040161099790614024565b60405180910390fd5b8273ffffffffffffffffffffffffffffffffffffffff166323b872dd3033846040518463ffffffff1660e01b81526004016109dd93929190613e9a565b600060405180830381600087803b1580156109f757600080fd5b505af1158015610a0b573d6000803e3d6000fd5b50505050336008600084815260200190815260200160002060040160006101000a81548173ffffffffffffffffffffffffffffffffffffffff021916908373ffffffffffffffffffffffffffffffffffffffff16021790555060006008600084815260200190815260200160002060060160006101000a81548160ff02191690831515021790555060016008600084815260200190815260200160002060060160016101000a81548160ff02191690831515021790555050610acb613726565b5050565b60606000610add60046136b2565b905060008060005b83811015610b86573373ffffffffffffffffffffffffffffffffffffffff1660096000600184610b159190614242565b815260200190815260200160002060030160009054906101000a900473ffffffffffffffffffffffffffffffffffffffff1673ffffffffffffffffffffffffffffffffffffffff161415610b7357600183610b709190614242565b92505b8080610b7e90614338565b915050610ae5565b5060008267ffffffffffffffff811115610bc9577f4e487b7100000000000000000000000000000000000000000000000000000000600052604160045260246000fd5b604051908082528060200260200182016040528015610c0257816020015b610bef6137bb565b815260200190600190039081610be75790505b50905060005b84811015610ed3573373ffffffffffffffffffffffffffffffffffffffff1660096000600184610c389190614242565b815260200190815260200160002060030160009054906101000a900473ffffffffffffffffffffffffffffffffffffffff1673ffffffffffffffffffffffffffffffffffffffff161415610ec057600060096000600184610c999190614242565b8152602001908152602001600020600001549050600060096000838152602001908152602001600020905080604051806101a0016040529081600082015481526020016001820160009054906101000a900473ffffffffffffffffffffffffffffffffffffffff1673ffffffffffffffffffffffffffffffffffffffff1673ffffffffffffffffffffffffffffffffffffffff168152602001600282015481526020016003820160009054906101000a900473ffffffffffffffffffffffffffffffffffffffff1673ffffffffffffffffffffffffffffffffffffffff1673ffffffffffffffffffffffffffffffffffffffff1681526020016004820160009054906101000a900473ffffffffffffffffffffffffffffffffffffffff1673ffffffffffffffffffffffffffffffffffffffff1673ffffffffffffffffffffffffffffffffffffffff1681526020016005820154815260200160068201548152602001600782015481526020016008820154815260200160098201548152602001600a820160009054906101000a900460ff16151515158152602001600a820160019054906101000a900460ff16151515158152602001600a820160029054906101000a900460ff161515151581525050848681518110610ea3577f4e487b7100000000000000000000000000000000000000000000000000000000600052603260045260246000fd5b6020026020010181905250600185610ebb9190614242565b945050505b8080610ecb90614338565b915050610c08565b508094505050505090565b610ee66136c0565b60008111610f29576040517f08c379a0000000000000000000000000000000000000000000000000000000008152600401610f2090614184565b60405180910390fd5b6007543414610f6d576040517f08c379a0000000000000000000000000000000000000000000000000000000008152600401610f6490614124565b60405180910390fd5b610f776001613710565b6000610f8360016136b2565b90506040518061010001604052808281526020018573ffffffffffffffffffffffffffffffffffffffff1681526020018481526020013373ffffffffffffffffffffffffffffffffffffffff168152602001600073ffffffffffffffffffffffffffffffffffffffff16815260200183815260200160001515815260200160001515815250600860008381526020019081526020016000206000820151816000015560208201518160010160006101000a81548173ffffffffffffffffffffffffffffffffffffffff021916908373ffffffffffffffffffffffffffffffffffffffff1602179055506040820151816002015560608201518160030160006101000a81548173ffffffffffffffffffffffffffffffffffffffff021916908373ffffffffffffffffffffffffffffffffffffffff16021790555060808201518160040160006101000a81548173ffffffffffffffffffffffffffffffffffffffff021916908373ffffffffffffffffffffffffffffffffffffffff16021790555060a0820151816005015560c08201518160060160006101000a81548160ff02191690831515021790555060e08201518160060160016101000a81548160ff0219169083151502179055509050508373ffffffffffffffffffffffffffffffffffffffff166323b872dd3330866040518463ffffffff1660e01b815260040161118e93929190613e9a565b600060405180830381600087803b1580156111a857600080fd5b505af11580156111bc573d6000803e3d6000fd5b50505050828473ffffffffffffffffffffffffffffffffffffffff16827fc99151f4453170a67bc7441775fde1a3bc3220c06645df1121e703aab5e7da5d33600087600080604051611212959493929190613ed1565b60405180910390a450611223613726565b505050565b6112306136c0565b600060096000838152602001908152602001600020600a0160009054906101000a900460ff16905060006009600084815260200190815260200160002060090154905060006009600085815260200190815260200160002060080154905060006009600086815260200190815260200160002060020154905060006009600087815260200190815260200160002060040160009054906101000a900473ffffffffffffffffffffffffffffffffffffffff169050600084846112f29190614242565b9050600115158615151461133b576040517f08c379a0000000000000000000000000000000000000000000000000000000008152600401611332906140a4565b60405180910390fd5b80421161137d576040517f08c379a000000000000000000000000000000000000000000000000000000000815260040161137490614064565b60405180910390fd5b6009600088815260200190815260200160002060040160009054906101000a900473ffffffffffffffffffffffffffffffffffffffff1673ffffffffffffffffffffffffffffffffffffffff166108fc349081150290604051600060405180830381858888f193505050501580156113f9573d6000803e3d6000fd5b508773ffffffffffffffffffffffffffffffffffffffff166323b872dd3084866040518463ffffffff1660e01b815260040161143793929190613e9a565b600060405180830381600087803b15801561145157600080fd5b505af1158015611465573d6000803e3d6000fd5b50505050600060096000898152602001908152602001600020600a0160006101000a81548160ff021916908315150217905550600160096000898152602001908152602001600020600a0160026101000a81548160ff0219169083151502179055505050505050506114d5613726565b5050565b606060006114e760016136b2565b905060008060005b838110156115b65785600860006001846115099190614242565b8152602001908152602001600020600201541480156115555750600860006001836115349190614242565b815260200190815260200160002060060160019054906101000a900460ff16155b801561158e57506008600060018361156d9190614242565b815260200190815260200160002060060160009054906101000a900460ff16155b156115a3576001836115a09190614242565b92505b80806115ae90614338565b9150506114ef565b5060008267ffffffffffffffff8111156115f9577f4e487b7100000000000000000000000000000000000000000000000000000000600052604160045260246000fd5b60405190808252806020026020018201604052801561163257816020015b61161f613730565b8152602001906001900390816116175790505b50905060005b848110156118e65786600860006001846116529190614242565b81526020019081526020016000206002015414801561169e57506008600060018361167d9190614242565b815260200190815260200160002060060160019054906101000a900460ff16155b80156116d75750600860006001836116b69190614242565b815260200190815260200160002060060160009054906101000a900460ff16155b156118d3576000600860006001846116ef9190614242565b815260200190815260200160002060000154905060006008600083815260200190815260200160002090508060405180610100016040529081600082015481526020016001820160009054906101000a900473ffffffffffffffffffffffffffffffffffffffff1673ffffffffffffffffffffffffffffffffffffffff1673ffffffffffffffffffffffffffffffffffffffff168152602001600282015481526020016003820160009054906101000a900473ffffffffffffffffffffffffffffffffffffffff1673ffffffffffffffffffffffffffffffffffffffff1673ffffffffffffffffffffffffffffffffffffffff1681526020016004820160009054906101000a900473ffffffffffffffffffffffffffffffffffffffff1673ffffffffffffffffffffffffffffffffffffffff1673ffffffffffffffffffffffffffffffffffffffff168152602001600582015481526020016006820160009054906101000a900460ff161515151581526020016006820160019054906101000a900460ff1615151515815250508486815181106118b6577f4e487b7100000000000000000000000000000000000000000000000000000000600052603260045260246000fd5b60200260200101819052506001856118ce9190614242565b945050505b80806118de90614338565b915050611638565b5080945050505050919050565b6060600061190160016136b2565b905060008060005b838110156119aa573373ffffffffffffffffffffffffffffffffffffffff16600860006001846119399190614242565b815260200190815260200160002060030160009054906101000a900473ffffffffffffffffffffffffffffffffffffffff1673ffffffffffffffffffffffffffffffffffffffff161415611997576001836119949190614242565b92505b80806119a290614338565b915050611909565b5060008267ffffffffffffffff8111156119ed577f4e487b7100000000000000000000000000000000000000000000000000000000600052604160045260246000fd5b604051908082528060200260200182016040528015611a2657816020015b611a13613730565b815260200190600190039081611a0b5790505b50905060005b84811015611cb4573373ffffffffffffffffffffffffffffffffffffffff1660086000600184611a5c9190614242565b815260200190815260200160002060030160009054906101000a900473ffffffffffffffffffffffffffffffffffffffff1673ffffffffffffffffffffffffffffffffffffffff161415611ca157600060086000600184611abd9190614242565b815260200190815260200160002060000154905060006008600083815260200190815260200160002090508060405180610100016040529081600082015481526020016001820160009054906101000a900473ffffffffffffffffffffffffffffffffffffffff1673ffffffffffffffffffffffffffffffffffffffff1673ffffffffffffffffffffffffffffffffffffffff168152602001600282015481526020016003820160009054906101000a900473ffffffffffffffffffffffffffffffffffffffff1673ffffffffffffffffffffffffffffffffffffffff1673ffffffffffffffffffffffffffffffffffffffff1681526020016004820160009054906101000a900473ffffffffffffffffffffffffffffffffffffffff1673ffffffffffffffffffffffffffffffffffffffff1673ffffffffffffffffffffffffffffffffffffffff168152602001600582015481526020016006820160009054906101000a900460ff161515151581526020016006820160019054906101000a900460ff161515151581525050848681518110611c84577f4e487b7100000000000000000000000000000000000000000000000000000000600052603260045260246000fd5b6020026020010181905250600185611c9c9190614242565b945050505b8080611cac90614338565b915050611a2c565b508094505050505090565b611cc76136c0565b60006009600083815260200190815260200160002060070154905060006009600084815260200190815260200160002060020154905060006009600085815260200190815260200160002060030160009054906101000a900473ffffffffffffffffffffffffffffffffffffffff169050823414611d7a576040517f08c379a0000000000000000000000000000000000000000000000000000000008152600401611d71906140e4565b60405180910390fd5b6009600085815260200190815260200160002060040160009054906101000a900473ffffffffffffffffffffffffffffffffffffffff1673ffffffffffffffffffffffffffffffffffffffff166108fc349081150290604051600060405180830381858888f19350505050158015611df6573d6000803e3d6000fd5b508473ffffffffffffffffffffffffffffffffffffffff166323b872dd3083856040518463ffffffff1660e01b8152600401611e3493929190613e9a565b600060405180830381600087803b158015611e4e57600080fd5b505af1158015611e62573d6000803e3d6000fd5b50505050600060096000868152602001908152602001600020600a0160006101000a81548160ff021916908315150217905550600160096000868152602001908152602001600020600a0160016101000a81548160ff021916908315150217905550505050611ecf613726565b5050565b60606000611ee160046136b2565b905060008060005b83811015611f8a573373ffffffffffffffffffffffffffffffffffffffff1660096000600184611f199190614242565b815260200190815260200160002060040160009054906101000a900473ffffffffffffffffffffffffffffffffffffffff1673ffffffffffffffffffffffffffffffffffffffff161415611f7757600183611f749190614242565b92505b8080611f8290614338565b915050611ee9565b5060008267ffffffffffffffff811115611fcd577f4e487b7100000000000000000000000000000000000000000000000000000000600052604160045260246000fd5b60405190808252806020026020018201604052801561200657816020015b611ff36137bb565b815260200190600190039081611feb5790505b50905060005b848110156122d7573373ffffffffffffffffffffffffffffffffffffffff166009600060018461203c9190614242565b815260200190815260200160002060040160009054906101000a900473ffffffffffffffffffffffffffffffffffffffff1673ffffffffffffffffffffffffffffffffffffffff1614156122c45760006009600060018461209d9190614242565b8152602001908152602001600020600001549050600060096000838152602001908152602001600020905080604051806101a0016040529081600082015481526020016001820160009054906101000a900473ffffffffffffffffffffffffffffffffffffffff1673ffffffffffffffffffffffffffffffffffffffff1673ffffffffffffffffffffffffffffffffffffffff168152602001600282015481526020016003820160009054906101000a900473ffffffffffffffffffffffffffffffffffffffff1673ffffffffffffffffffffffffffffffffffffffff1673ffffffffffffffffffffffffffffffffffffffff1681526020016004820160009054906101000a900473ffffffffffffffffffffffffffffffffffffffff1673ffffffffffffffffffffffffffffffffffffffff1673ffffffffffffffffffffffffffffffffffffffff1681526020016005820154815260200160068201548152602001600782015481526020016008820154815260200160098201548152602001600a820160009054906101000a900460ff16151515158152602001600a820160019054906101000a900460ff16151515158152602001600a820160029054906101000a900460ff1615151515815250508486815181106122a7577f4e487b7100000000000000000000000000000000000000000000000000000000600052603260045260246000fd5b60200260200101819052506001856122bf9190614242565b945050505b80806122cf90614338565b91505061200c565b508094505050505090565b6000600754905090565b6122f46136c0565b60006008600083815260200190815260200160002060050154905060006008600084815260200190815260200160002060020154905081341461236c576040517f08c379a000000000000000000000000000000000000000000000000000000000815260040161236390614084565b60405180910390fd5b6008600084815260200190815260200160002060030160009054906101000a900473ffffffffffffffffffffffffffffffffffffffff1673ffffffffffffffffffffffffffffffffffffffff166108fc349081150290604051600060405180830381858888f193505050501580156123e8573d6000803e3d6000fd5b508373ffffffffffffffffffffffffffffffffffffffff166323b872dd3033846040518463ffffffff1660e01b815260040161242693929190613e9a565b600060405180830381600087803b15801561244057600080fd5b505af1158015612454573d6000803e3d6000fd5b50505050336008600085815260200190815260200160002060040160006101000a81548173ffffffffffffffffffffffffffffffffffffffff021916908373ffffffffffffffffffffffffffffffffffffffff16021790555060016008600085815260200190815260200160002060060160006101000a81548160ff0219169083151502179055506124e66002613710565b600660009054906101000a900473ffffffffffffffffffffffffffffffffffffffff1673ffffffffffffffffffffffffffffffffffffffff166108fc6007549081150290604051600060405180830381858888f19350505050158015612550573d6000803e3d6000fd5b50505061255b613726565b5050565b6060600061256d60016136b2565b905060008060005b83811015612616573373ffffffffffffffffffffffffffffffffffffffff16600860006001846125a59190614242565b815260200190815260200160002060040160009054906101000a900473ffffffffffffffffffffffffffffffffffffffff1673ffffffffffffffffffffffffffffffffffffffff161415612603576001836126009190614242565b92505b808061260e90614338565b915050612575565b5060008267ffffffffffffffff811115612659577f4e487b7100000000000000000000000000000000000000000000000000000000600052604160045260246000fd5b60405190808252806020026020018201604052801561269257816020015b61267f613730565b8152602001906001900390816126775790505b50905060005b84811015612920573373ffffffffffffffffffffffffffffffffffffffff16600860006001846126c89190614242565b815260200190815260200160002060040160009054906101000a900473ffffffffffffffffffffffffffffffffffffffff1673ffffffffffffffffffffffffffffffffffffffff16141561290d576000600860006001846127299190614242565b815260200190815260200160002060000154905060006008600083815260200190815260200160002090508060405180610100016040529081600082015481526020016001820160009054906101000a900473ffffffffffffffffffffffffffffffffffffffff1673ffffffffffffffffffffffffffffffffffffffff1673ffffffffffffffffffffffffffffffffffffffff168152602001600282015481526020016003820160009054906101000a900473ffffffffffffffffffffffffffffffffffffffff1673ffffffffffffffffffffffffffffffffffffffff1673ffffffffffffffffffffffffffffffffffffffff1681526020016004820160009054906101000a900473ffffffffffffffffffffffffffffffffffffffff1673ffffffffffffffffffffffffffffffffffffffff1673ffffffffffffffffffffffffffffffffffffffff168152602001600582015481526020016006820160009054906101000a900460ff161515151581526020016006820160019054906101000a900460ff1615151515815250508486815181106128f0577f4e487b7100000000000000000000000000000000000000000000000000000000600052603260045260246000fd5b60200260200101819052506001856129089190614242565b945050505b808061291890614338565b915050612698565b508094505050505090565b6060600061293960016136b2565b90506000808267ffffffffffffffff81111561297e577f4e487b7100000000000000000000000000000000000000000000000000000000600052604160045260246000fd5b6040519080825280602002602001820160405280156129b757816020015b6129a4613730565b81526020019060019003908161299c5790505b50905060005b83811015612bce576000600860006001846129d89190614242565b815260200190815260200160002060000154905060006008600083815260200190815260200160002090508060405180610100016040529081600082015481526020016001820160009054906101000a900473ffffffffffffffffffffffffffffffffffffffff1673ffffffffffffffffffffffffffffffffffffffff1673ffffffffffffffffffffffffffffffffffffffff168152602001600282015481526020016003820160009054906101000a900473ffffffffffffffffffffffffffffffffffffffff1673ffffffffffffffffffffffffffffffffffffffff1673ffffffffffffffffffffffffffffffffffffffff1681526020016004820160009054906101000a900473ffffffffffffffffffffffffffffffffffffffff1673ffffffffffffffffffffffffffffffffffffffff1673ffffffffffffffffffffffffffffffffffffffff168152602001600582015481526020016006820160009054906101000a900460ff161515151581526020016006820160019054906101000a900460ff161515151581525050848681518110612b9f577f4e487b7100000000000000000000000000000000000000000000000000000000600052603260045260246000fd5b6020026020010181905250600185612bb79190614242565b945050508080612bc690614338565b9150506129bd565b5080935050505090565b60606000612be660046136b2565b90506000612bf460056136b2565b612bfe60046136b2565b612c089190614298565b90506000808267ffffffffffffffff811115612c4d577f4e487b7100000000000000000000000000000000000000000000000000000000600052604160045260246000fd5b604051908082528060200260200182016040528015612c8657816020015b612c736137bb565b815260200190600190039081612c6b5790505b50905060005b84811015612f5857600073ffffffffffffffffffffffffffffffffffffffff1660096000600184612cbd9190614242565b815260200190815260200160002060040160009054906101000a900473ffffffffffffffffffffffffffffffffffffffff1673ffffffffffffffffffffffffffffffffffffffff161415612f4557600060096000600184612d1e9190614242565b8152602001908152602001600020600001549050600060096000838152602001908152602001600020905080604051806101a0016040529081600082015481526020016001820160009054906101000a900473ffffffffffffffffffffffffffffffffffffffff1673ffffffffffffffffffffffffffffffffffffffff1673ffffffffffffffffffffffffffffffffffffffff168152602001600282015481526020016003820160009054906101000a900473ffffffffffffffffffffffffffffffffffffffff1673ffffffffffffffffffffffffffffffffffffffff1673ffffffffffffffffffffffffffffffffffffffff1681526020016004820160009054906101000a900473ffffffffffffffffffffffffffffffffffffffff1673ffffffffffffffffffffffffffffffffffffffff1673ffffffffffffffffffffffffffffffffffffffff1681526020016005820154815260200160068201548152602001600782015481526020016008820154815260200160098201548152602001600a820160009054906101000a900460ff16151515158152602001600a820160019054906101000a900460ff16151515158152602001600a820160029054906101000a900460ff161515151581525050848681518110612f28577f4e487b7100000000000000000000000000000000000000000000000000000000600052603260045260246000fd5b6020026020010181905250600185612f409190614242565b945050505b8080612f5090614338565b915050612c8c565b508094505050505090565b612f6b6136c0565b60008311612fae576040517f08c379a0000000000000000000000000000000000000000000000000000000008152600401612fa590614004565b60405180910390fd5b6007543414612ff2576040517f08c379a0000000000000000000000000000000000000000000000000000000008152600401612fe9906140c4565b60405180910390fd5b6000811015613036576040517f08c379a000000000000000000000000000000000000000000000000000000000815260040161302d90614044565b60405180910390fd5b60008211613079576040517f08c379a000000000000000000000000000000000000000000000000000000000815260040161307090614144565b60405180910390fd5b6130836004613710565b600061308f60046136b2565b90506000828561309f9190614242565b9050604051806101a001604052808381526020018873ffffffffffffffffffffffffffffffffffffffff1681526020018781526020013373ffffffffffffffffffffffffffffffffffffffff168152602001600073ffffffffffffffffffffffffffffffffffffffff1681526020018681526020018481526020018281526020016000815260200185815260200160001515815260200160001515815260200160001515815250600960008481526020019081526020016000206000820151816000015560208201518160010160006101000a81548173ffffffffffffffffffffffffffffffffffffffff021916908373ffffffffffffffffffffffffffffffffffffffff1602179055506040820151816002015560608201518160030160006101000a81548173ffffffffffffffffffffffffffffffffffffffff021916908373ffffffffffffffffffffffffffffffffffffffff16021790555060808201518160040160006101000a81548173ffffffffffffffffffffffffffffffffffffffff021916908373ffffffffffffffffffffffffffffffffffffffff16021790555060a0820151816005015560c0820151816006015560e082015181600701556101008201518160080155610120820151816009015561014082015181600a0160006101000a81548160ff02191690831515021790555061016082015181600a0160016101000a81548160ff02191690831515021790555061018082015181600a0160026101000a81548160ff0219169083151502179055509050508673ffffffffffffffffffffffffffffffffffffffff166323b872dd3330896040518463ffffffff1660e01b815260040161331993929190613e9a565b600060405180830381600087803b15801561333357600080fd5b505af1158015613347573d6000803e3d6000fd5b50505050858773ffffffffffffffffffffffffffffffffffffffff16837f11619de2625c389626b1e9d3c8f2f191375dbc5ac67de5c4964ab9e18d0efa493360008a898860008d60008060006040516133a99a99989796959493929190613f24565b60405180910390a450506133bb613726565b5050505050565b606060006133d060046136b2565b90506000808267ffffffffffffffff811115613415577f4e487b7100000000000000000000000000000000000000000000000000000000600052604160045260246000fd5b60405190808252806020026020018201604052801561344e57816020015b61343b6137bb565b8152602001906001900390816134335790505b50905060005b838110156136a85760006009600060018461346f9190614242565b8152602001908152602001600020600001549050600060096000838152602001908152602001600020905080604051806101a0016040529081600082015481526020016001820160009054906101000a900473ffffffffffffffffffffffffffffffffffffffff1673ffffffffffffffffffffffffffffffffffffffff1673ffffffffffffffffffffffffffffffffffffffff168152602001600282015481526020016003820160009054906101000a900473ffffffffffffffffffffffffffffffffffffffff1673ffffffffffffffffffffffffffffffffffffffff1673ffffffffffffffffffffffffffffffffffffffff1681526020016004820160009054906101000a900473ffffffffffffffffffffffffffffffffffffffff1673ffffffffffffffffffffffffffffffffffffffff1673ffffffffffffffffffffffffffffffffffffffff1681526020016005820154815260200160068201548152602001600782015481526020016008820154815260200160098201548152602001600a820160009054906101000a900460ff16151515158152602001600a820160019054906101000a900460ff16151515158152602001600a820160029054906101000a900460ff161515151581525050848681518110613679577f4e487b7100000000000000000000000000000000000000000000000000000000600052603260045260246000fd5b60200260200101819052506001856136919190614242565b9450505080806136a090614338565b915050613454565b5080935050505090565b600081600001549050919050565b60026000541415613706576040517f08c379a00000000000000000000000000000000000000000000000000000000081526004016136fd90614164565b60405180910390fd5b6002600081905550565b6001816000016000828254019250508190555050565b6001600081905550565b60405180610100016040528060008152602001600073ffffffffffffffffffffffffffffffffffffffff16815260200160008152602001600073ffffffffffffffffffffffffffffffffffffffff168152602001600073ffffffffffffffffffffffffffffffffffffffff168152602001600081526020016000151581526020016000151581525090565b604051806101a0016040528060008152602001600073ffffffffffffffffffffffffffffffffffffffff16815260200160008152602001600073ffffffffffffffffffffffffffffffffffffffff168152602001600073ffffffffffffffffffffffffffffffffffffffff16815260200160008152602001600081526020016000815260200160008152602001600081526020016000151581526020016000151581526020016000151581525090565b60008135905061387a8161471b565b92915050565b60008135905061388f81614732565b92915050565b600080604083850312156138a857600080fd5b60006138b68582860161386b565b92505060206138c785828601613880565b9150509250929050565b6000806000606084860312156138e657600080fd5b60006138f48682870161386b565b935050602061390586828701613880565b925050604061391686828701613880565b9150509250925092565b600080600080600060a0868803121561393857600080fd5b60006139468882890161386b565b955050602061395788828901613880565b945050604061396888828901613880565b935050606061397988828901613880565b925050608061398a88828901613880565b9150509295509295909350565b6000602082840312156139a957600080fd5b60006139b784828501613880565b91505092915050565b60006139cc8383613ccf565b6101a08301905092915050565b60006139e58383613dda565b6101008301905092915050565b6139fb816142de565b82525050565b613a0a816142cc565b82525050565b613a19816142cc565b82525050565b6000613a2a826141df565b613a34818561420f565b9350613a3f836141bf565b8060005b83811015613a70578151613a5788826139c0565b9750613a62836141f5565b925050600181019050613a43565b5085935050505092915050565b6000613a88826141ea565b613a928185614220565b9350613a9d836141cf565b8060005b83811015613ace578151613ab588826139d9565b9750613ac083614202565b925050600181019050613aa1565b5085935050505092915050565b613ae4816142f0565b82525050565b613af3816142f0565b82525050565b613b0281614326565b82525050565b6000613b15602083614231565b9150613b20826143b0565b602082019050919050565b6000613b38603483614231565b9150613b43826143d9565b604082019050919050565b6000613b5b601b83614231565b9150613b6682614428565b602082019050919050565b6000613b7e602b83614231565b9150613b8982614451565b604082019050919050565b6000613ba1604083614231565b9150613bac826144a0565b604082019050919050565b6000613bc4601d83614231565b9150613bcf826144ef565b602082019050919050565b6000613be7602883614231565b9150613bf282614518565b604082019050919050565b6000613c0a603e83614231565b9150613c1582614567565b604082019050919050565b6000613c2d604283614231565b9150613c38826145b6565b606082019050919050565b6000613c50602483614231565b9150613c5b8261462b565b604082019050919050565b6000613c73602283614231565b9150613c7e8261467a565b604082019050919050565b6000613c96601f83614231565b9150613ca1826146c9565b602082019050919050565b6000613cb9601c83614231565b9150613cc4826146f2565b602082019050919050565b6101a082016000820151613ce66000850182613e7c565b506020820151613cf96020850182613a01565b506040820151613d0c6040850182613e7c565b506060820151613d1f60608501826139f2565b506080820151613d3260808501826139f2565b5060a0820151613d4560a0850182613e7c565b5060c0820151613d5860c0850182613e7c565b5060e0820151613d6b60e0850182613e7c565b50610100820151613d80610100850182613e7c565b50610120820151613d95610120850182613e7c565b50610140820151613daa610140850182613adb565b50610160820151613dbf610160850182613adb565b50610180820151613dd4610180850182613adb565b50505050565b61010082016000820151613df16000850182613e7c565b506020820151613e046020850182613a01565b506040820151613e176040850182613e7c565b506060820151613e2a60608501826139f2565b506080820151613e3d60808501826139f2565b5060a0820151613e5060a0850182613e7c565b5060c0820151613e6360c0850182613adb565b5060e0820151613e7660e0850182613adb565b50505050565b613e858161431c565b82525050565b613e948161431c565b82525050565b6000606082019050613eaf6000830186613a10565b613ebc6020830185613a10565b613ec96040830184613e8b565b949350505050565b600060a082019050613ee66000830188613a10565b613ef36020830187613a10565b613f006040830186613e8b565b613f0d6060830185613aea565b613f1a6080830184613aea565b9695505050505050565b600061014082019050613f3a600083018d613a10565b613f47602083018c613a10565b613f54604083018b613e8b565b613f61606083018a613e8b565b613f6e6080830189613e8b565b613f7b60a0830188613af9565b613f8860c0830187613e8b565b613f9560e0830186613aea565b613fa3610100830185613aea565b613fb1610120830184613aea565b9b9a5050505050505050505050565b60006020820190508181036000830152613fda8184613a1f565b905092915050565b60006020820190508181036000830152613ffc8184613a7d565b905092915050565b6000602082019050818103600083015261401d81613b08565b9050919050565b6000602082019050818103600083015261403d81613b2b565b9050919050565b6000602082019050818103600083015261405d81613b4e565b9050919050565b6000602082019050818103600083015261407d81613b71565b9050919050565b6000602082019050818103600083015261409d81613b94565b9050919050565b600060208201905081810360008301526140bd81613bb7565b9050919050565b600060208201905081810360008301526140dd81613bda565b9050919050565b600060208201905081810360008301526140fd81613bfd565b9050919050565b6000602082019050818103600083015261411d81613c20565b9050919050565b6000602082019050818103600083015261413d81613c43565b9050919050565b6000602082019050818103600083015261415d81613c66565b9050919050565b6000602082019050818103600083015261417d81613c89565b9050919050565b6000602082019050818103600083015261419d81613cac565b9050919050565b60006020820190506141b96000830184613e8b565b92915050565b6000819050602082019050919050565b6000819050602082019050919050565b600081519050919050565b600081519050919050565b6000602082019050919050565b6000602082019050919050565b600082825260208201905092915050565b600082825260208201905092915050565b600082825260208201905092915050565b600061424d8261431c565b91506142588361431c565b9250827fffffffffffffffffffffffffffffffffffffffffffffffffffffffffffffffff0382111561428d5761428c614381565b5b828201905092915050565b60006142a38261431c565b91506142ae8361431c565b9250828210156142c1576142c0614381565b5b828203905092915050565b60006142d7826142fc565b9050919050565b60006142e9826142fc565b9050919050565b60008115159050919050565b600073ffffffffffffffffffffffffffffffffffffffff82169050919050565b6000819050919050565b60006143318261431c565b9050919050565b60006143438261431c565b91507fffffffffffffffffffffffffffffffffffffffffffffffffffffffffffffffff82141561437657614375614381565b5b600182019050919050565b7f4e487b7100000000000000000000000000000000000000000000000000000000600052601160045260246000fd5b7f5072696e636970616c206d757374206265206174206c65617374203120776569600082015250565b7f546865206974656d2063616e206f6e6c792062652077697468647261776e206260008201527f79207468652073656c6c65722061646472657373000000000000000000000000602082015250565b7f496e746572657374206d757374206265206174206c6561737420300000000000600082015250565b7f4c656173652063616e206f6e6c792064656661756c742061667465722069742060008201527f6861732065787069726564000000000000000000000000000000000000000000602082015250565b7f506c65617365207375626d6974207468652061736b696e67207072696365206960008201527f6e206f7264657220746f20636f6d706c65746520746865207075726368617365602082015250565b7f43616e206f6e6c792064656661756c7420616374697665206c65617365000000600082015250565b7f5072696e636970616c206d75737420626520657175616c20746f206c6973746960008201527f6e67207072696365000000000000000000000000000000000000000000000000602082015250565b7f506c65617365207375626d6974207468652072657061796d656e7420616d6f7560008201527f6e7420696e206f7264657220746f20726570617920746865206c656173650000602082015250565b7f506c65617365207375626d697420746865207072696e636970616c20616d6f7560008201527f6e7420696e206f7264657220746f207468652066696c6c206c6561736520697460208201527f656d000000000000000000000000000000000000000000000000000000000000604082015250565b7f5072696365206d75737420626520657175616c20746f206c697374696e67207060008201527f7269636500000000000000000000000000000000000000000000000000000000602082015250565b7f4475726174696f6e206d757374206265206174206c656173742031207365636f60008201527f6e64000000000000000000000000000000000000000000000000000000000000602082015250565b7f5265656e7472616e637947756172643a207265656e7472616e742063616c6c00600082015250565b7f5072696365206d757374206265206174206c6561737420312077656900000000600082015250565b614724816142cc565b811461472f57600080fd5b50565b61473b8161431c565b811461474657600080fd5b5056fea26469706673582212204adc3c69aa2c5b75428e0429e547382d57264f2e661c3463d9b2d25df255840d64736f6c63430008040033",
  "linkReferences": {},
  "deployedLinkReferences": {}
}